{
  "address": "0x089C14f9B6E0A9EA8F579b5F1747E2d821bC27bD",
  "abi": [
    {
      "inputs": [
        {
          "internalType": "string",
          "name": "_username",
          "type": "string"
        }
      ],
      "name": "getUsernameAddress",
      "outputs": [
        {
          "internalType": "address",
          "name": "",
          "type": "address"
        }
      ],
      "stateMutability": "view",
      "type": "function"
    },
    {
      "inputs": [
        {
          "internalType": "string",
          "name": "_username",
          "type": "string"
        }
      ],
      "name": "registerUsername",
      "outputs": [],
      "stateMutability": "nonpayable",
      "type": "function"
    }
  ],
  "transactionHash": "0x1c66ed3abe256545fa167719d7a898aa8bf7048473cd100988bc16ea5cd627c2",
  "args": [],
  "numDeployments": 1,
  "solcInputHash": "795bf459660fd50fcd46d19f66dc0ef1",
  "bytecode": "0x608060405234801561001057600080fd5b506102a3806100206000396000f3fe608060405234801561001057600080fd5b50600436106100365760003560e01c806336a941341461003b5780634ab227d714610050575b600080fd5b61004e61004936600461018d565b61007f565b005b61006361005e36600461018d565b610147565b6040516001600160a01b03909116815260200160405180910390f35b60006001600160a01b031660008260405161009a919061023e565b908152604051908190036020019020546001600160a01b0316146101045760405162461bcd60e51b815260206004820152601760248201527f557365726e616d6520616c726561647920657869737473000000000000000000604482015260640160405180910390fd5b33600082604051610115919061023e565b90815260405190819003602001902080546001600160a01b03929092166001600160a01b031990921691909117905550565b60008082604051610158919061023e565b908152604051908190036020019020546001600160a01b031692915050565b634e487b7160e01b600052604160045260246000fd5b60006020828403121561019f57600080fd5b813567ffffffffffffffff808211156101b757600080fd5b818401915084601f8301126101cb57600080fd5b8135818111156101dd576101dd610177565b604051601f8201601f19908116603f0116810190838211818310171561020557610205610177565b8160405282815287602084870101111561021e57600080fd5b826020860160208301376000928101602001929092525095945050505050565b6000825160005b8181101561025f5760208186018101518583015201610245565b50600092019182525091905056fea264697066735822122035a79d2138cd7eb3e384db5613bde564cfcd33040e90e65971ed8f9bf6f1855864736f6c63430008110033",
  "devdoc": {
    "author": "BuidlGuidl",
    "kind": "dev",
    "methods": {},
    "version": 1
  },
  "userdoc": {
    "kind": "user",
    "methods": {},
    "notice": "A smart contract that allows changing a state variable of the contract and tracking the changes It also allows the owner to withdraw the Ether in the contract",
    "version": 1
  },
  "storageLayout": {
    "storage": [
      {
        "astId": 7,
        "contract": "contracts/Username.sol:Username",
        "label": "usernames",
        "offset": 0,
        "slot": "0",
        "type": "t_mapping(t_string_memory_ptr,t_address)"
      }
    ],
    "types": {
      "t_address": {
        "encoding": "inplace",
        "label": "address",
        "numberOfBytes": "20"
      },
      "t_mapping(t_string_memory_ptr,t_address)": {
        "encoding": "mapping",
        "key": "t_string_memory_ptr",
        "label": "mapping(string => address)",
        "numberOfBytes": "32",
        "value": "t_address"
      },
      "t_string_memory_ptr": {
        "encoding": "bytes",
        "label": "string",
        "numberOfBytes": "32"
      }
    }
  }
}